:100000000C9434000C9451000C9451000C94510049
:100010000C9451000C9451000C9451000C9451001C
:100020000C9451000C9451000C9451000C9451000C
:100030000C9451000C9451000C9451000C945100FC
:100040000C9451000C9451000C9451000C945100EC
:100050000C9451000C9451000C9451000C945100DC
:100060000C9451000C94510011241FBECFEFD8E026
:10007000DEBFCDBF11E0A0E0B1E0ECEFF1E002C0E7
:1000800005900D92AC31B107D9F721E0ACE1B1E0B8
:1000900001C01D92A232B207E1F70E94A6000C94A3
:1000A000FC000C9400008A3049F09091C00095FF4C
:1000B000FCCF8093C60080E090E008959091C0004E
:1000C00095FFFCCF9DE09093C600EFCF9093C500C5
:1000D0008093C40086E08093C20088E98093C100C9
:1000E00008959091C00095FFFCCF8093C6000895BD
:1000F0008091C00087FFFCCF8091C6000895809159
:10010000C000881F8827881F0895FC0120812223B2
:1001100051F031969091C00095FFFCCF2093C6001E
:1001200021912111F7CF089580E091E090931F0174
:1001300080931E011092C50082E38093C40086E084
:100140008093C20088E98093C10008950E949400C2
:10015000259AC0E0D0E002E012E212C015B9C1E079
:10016000D0E0199914C085E191E00E94CC002FEFF6
:1001700089E698E1215080409040E1F700C00000FE
:10018000CD2B61F305B9C0E0D0E0199BECCF8EE038
:1001900091E00E94CC00EBCF0F931F93CF93DF939E
:1001A000E0911E01F0911F01238121FF1BC08C01F2
:1001B000D0E0C0E0F80181918F0160911E01709143
:1001C0001F01DB011896ED91FC911997882331F0FE
:1001D0000995892B79F3DFEFCFEFECCF8AE0099512
:1001E000892B19F08FEF9FEF02C08D2F9C2FDF918D
:0C01F000CF911F910F910895F894FFCF5C
:1001FC0000000002000000005300000000006163DA
:0C020C006365736F007370656E746F00A3
:00000001FF
